:100000000C9440040C9487040C9487040C9487048B
:100010000C9487040C9487040C9487040C94870434
:100020000C9487040C9487040C94FB270C94CD2823
:100030000C947B200C9487040C9487040C94870404
:100040000C9487040C9487040C9487040C94870404
:100050000C9487040C94E3200C9487040C9487047C
:100060000C9487040C9487040C9487040C948704E4
:100070000C9487040C9487040C9487040C948704D4
:100080000C9487040C9487040C9487040C948704C4
:100090000C9487040C9487040C9487040C948704B4
:1000A0000C9487040C9487040C948704CA0FCD0F1A
:1000B000D50FDA0FDF0FE40FE90FEE0FF30FF80F94
:1000C000FD0F0210041007100A100D10101013106D
:1000D00015101A10D715D7150916091656167416C5
:1000E000CC17CC17B6164B175C175C17BC17CC1780
:1000F000CC17C51752185218641864185B18641886
:10010000641864185218521860186418641860183B
:100110003A296129592A6129592AAD29D029592A10
:10012000272A362A68747470733A2F2F716D6B2EDC
:10013000666D2F012800514D4B206973207468654E
:100140002062657374207468696E672065766572D5
:100150002100290000003A003B003C003D003E0029
:100160003F00400041004200430044004500AE0013
:1001700035001E001F002000210022002300240063
:100180002500260027002D002E0031004C002B00FA
:1001900014001A000800150017001C0018000C00BD
:1001A000120013002F00300000002A00E0000400BD
:1001B0001600070009000A000B000D000E000F00DA
:1001C00033003400000028000000E1001D001B0087
:1001D0000600190005001100100036003700380035
:1001E000E500000000000151E300E2000000000013
:1001F000000000002C00000000000000E60002519A
:1002000000000000000001000000010001000100EA
:100210000100010001000100010046004700480004
:1002200001000100010001000100010001000100C6
:1002300001000100010001000100010001000100B6
:1002400049003900FD00F000FE00F9000100010046
:1002500001000100010001005200010000002A001D
:100260000100F200F100F300FA00010001000100BA
:100270004A004B0050004F00000001000000010048
:10028000F400F600F50001000100010001004D003E
:100290004E005100010000000000010001000100BB
:1002A000000000000000000001000000000000004D
:1002B000010001000000000000000100000001003A
:1002C0000100010001000100010001000100010026
:1002D000010001000100005C0100010001000100BB
:1002E0000100010001000100010001000100AA005D
:1002F000A900A8000100390001000100010001006F
:1003000001000100010001000100010001000100E5
:1003100000000100010001000100010001000100D6
:100320000100010001000100010001000000AE0019
:1003300000000100010001000100010001000100B6
:1003400001000100010001000100000000000100A7
:10035000010001000000000000000000010000009A
:10036000000000000100010000000000000000008B
:100370000000000000002A2B280000000000000000
:1003800000000000000000000029000000002C1EFA
:100390003420212224342627252E362D3738271EB7
:1003A0001F202122232425263333362E37381F04DD
:1003B00005060708090A0B0C0D0E0F101112131475
:1003C00015161718191A1B1C1D2F3130232D350433
:1003D00005060708090A0B0C0D0E0F101112131455
:1003E00015161718191A1B1C1D2F3130354C00001B
:1003F00000000000000000000000000000000000FD
:1004000000000000000000000000000000000000EC
:1004100000000000000000000000000000000000DC
:1004200000000000000000000000000000000000CC
:1004300000000000000000000000000000000000BC
:1004400000000000000000000000000000000000AC
:10045000000000000000000000000000000000009C
:10046000000000000000000000000000000000008C
:10047000000000000000000000000000000000007C
:10048000000000000000000000000000000000016B
:100490000101010101000101010100000000000053
:1004A0000000000000000000010001000101010146
:1004B000010101010101010101010101010101012C
:1004C0000101010101010101010000000101000021
:1004D000000000000000000000000000000000001C
:1004E0000000000000000000000101010100000404
:1004F0007F3F1F643214643214783C1E1E140A05B8
:100500002223252628292A2C2D2F30323335363820
:100510003A3B3D3E4042434547494A4C4E50515379
:100520005557595A5C5E6062646668696B6D6F719D
:10053000737577797B7D7F81838587898A8C8E909F
:10054000929496989A9C9E9FA1A3A5A7A8AAACAEA8
:10055000AFB1B3B4B6B8B9BBBCBEBFC1C2C3C5C6E8
:10056000C7C9CACBCCCDCED0D1D2D2D3D4D5D6D791
:10057000D7D8D9D9DADADBDBDBDCDCDCDCDCDDDDCF
:10058000DDDDDCDCDCDCDCDBDBDBDADAD9D9D8D7BF
:10059000D7D6D5D4D3D2D2D1D0CECDCCCBCAC9C761
:1005A000C6C5C3C2C1BFBEBCBBB9B8B6B4B3B1AF98
:1005B000AEACAAA8A7A5A3A19F9E9C9A9896949238
:1005C000908E8C8A89878583817F7D7B797775730F
:1005D000716F6D6B6968666462605E5C5A595755ED
:1005E0005351504E4C4A4947454342403E3D3B3AA9
:1005F0003836353332302F2D2C2A29282625232230
:10060000FFAA7F5540000101010101010101010222
:1006100002020202020202020303030303030303B2
:10062000040404040404040505050505060606067D
:1006300006070707070708080808090909090A0A39
:100640000A0B0B0B0C0C0C0D0D0D0E0E0E0F0F0FDD
:100650001010111111121213131414151516161768
:1006600017181819191A1A1B1B1C1D1D1E1E1F20D6
:1006700020212222232424252626272829292A2B23
:100680002C2D2D2E2F303132323334353637383948
:100690003A3B3C3D3E3F4041424344454647484942
:1006A0004A4C4D4E4F50515354555658595A5B5D14
:1006B0005E5F616264656668696B6C6D6F707273B2
:1006C0007577787A7B7D7E8082838587888A8C8E19
:1006D0008F91939596989A9C9EA0A2A3A5A7A9AB4B
:1006E000ADAFB1B3B5B7BABCBEC0C2C4C6C9CBCD3D
:1006F000CFD1D4D6D8DBDDDFE2E4E7E9EBEEF0F3EF
:10070000F5F8FAFDFF040330000000100347004E27
:100710000047004B00420037003500000010034640
:10072000006C006500680072006100640000000455
:1007300003090409023B00020100A0FA09040000B9
:1007400001030101000921110100012240000705F8
:10075000810308000A0904010001030000000921C7
:100760001101000122C0000705820320000A1201C6
:10077000100100000008EDFE00000100010203016D
:1007800005010902A10185020901A100050919015C
:10079000290515002501950575018102950175034F
:1007A00081010501093009311581257F9502750800
:1007B000810609381581257F950175088106050C8C
:1007C0000A38021581257F950175088106C0C0058C
:1007D000010980A10185031A81002A830016010006
:1007E000260300950175108100C0050C0901A101C7
:1007F00085041A01002A9C02160100269C0295011C
:1008000075108100C005010906A1018505050719BC
:10081000E029E715002501950875018102050719F2
:100820000029EF1500250195F075018102050819D1
:10083000012905950575019102950175039101C086
:1008400005010906A101050719E029E715002501A1
:100850009508750181029501750881010507190048
:1008600029FF150026FF0095067508810005081967
:10087000012905950575019102950175039101C046
:1008800011241FBECFEFDAE0DEBFCDBF04B603FEFA
:1008900027C08091CE029091CF02A091D002B0915A
:1008A000D1028730904BA740B04BD1F41092CE02CA
:1008B0001092CF021092D0021092D10214BE84B7CF
:1008C000877F84BF0FB6F894A895809160008861F7
:1008D00080936000109260000FBEE0E0F8E309959D
:1008E00011E0A0E0B1E0E4E2F6E502C005900D926F
:1008F000AE36B107D9F722E0AEE6B1E001C01D92F5
:10090000AE3CB207E1F70E9428250C94102B0C9402
:100910000000811107C0662311F08AEA01C089EA4C
:100920000C948415089588302DE5920721F08930C4
:100930009D4541F00FC0FB018281882359F086E379
:1009400091E006C0FB018281882321F084E291E0DE
:100950000E94540581E0089508950895089581E066
:1009600008950C9493041F93CF93DF9300D000D08D
:100970001F92CDB7DEB749835A836B832091B101B3
:1009800089819A81211112C0662349F00E94A21D1B
:10099000182F682F89819A810E944B1D03C00E94E5
:1009A000761D182F69817A81812F04C00E94A21DB3
:1009B00069817A810F900F900F900F900F90DF91C7
:1009C000CF911F910C94F205FC014081518162810D
:1009D000738184810C94B3041F93CF93DF9390E0D1
:1009E000FC01E259FC4F1491FC01E259FB4FD491F8
:1009F000FC01E251FC4FC491DD2319F081EE0E940D
:100A0000FE13CC2319F086EE0E94FE13812F0E9464
:100A10008415CC2319F086EE0E941C15DD2331F0DD
:100A200081EEDF91CF911F910C941C15DF91CF9136
:100A30001F9108950F931F93CF93DF93EC01062F1F
:100A4000FE018491882359F19E012F5F3F4F813031
:100A500041F4E901F9011491812F0E94FE13812FC5
:100A60000DC0823031F4E901F90184910E94FE1336
:100A70000AC0833031F4E901F90184910E941C1508
:100A800002C00E94EC042196802F8823C9F2EFE96E
:100A9000FFE03197F1F700C000008150F6CFDF9101
:100AA000CF911F910F91089560E00C941A050E9458
:100AB000D41E811102C00E94741F0E945B100C940E
:100AC0009E080E946C100C94A0080C94AE0481E067
:100AD00008950C946705CF93C82F0E9465058C2F4D
:100AE0000E946905CF91089508950E9440180E94C0
:100AF00074052FEF84E39CE0215080409040E1F7A3
:100B000000C000000C9409210F931F93CF93DF9333
:100B1000EC010E94E4048C01BE010E94B104882310
:100B200009F456C0BE01C8010E942711882309F4A8
:100B30004FC0BE01C8010E946811882309F448C053
:100B4000BE01C8010E94B30F882309F441C08A8105
:100B5000882371F001158CE5180739F00E3D8CE5FE
:100B6000180731F40E94741F33C00E94750530C00D
:100B700006311C4531F50E94231E982F8A81209151
:100B8000100130911101882379F09A7A81E009F4FB
:100B900080E080936E01911102C069E201C065E3BB
:100BA000C9010E94E11F0AC080916E01811102C03B
:100BB00069E201C065E3C9010E94EC1F0E94711E39
:100BC00007C0CE01DF91CF911F910F910C94AF041C
:100BD00080E0DF91CF911F910F91089580E090E028
:100BE000089508952AE5829FC0011124FC012FE099
:100BF000729FE00DF11D1124E60FF11DEE0FFF1F96
:100C0000EE5AFE4F859194910895880F991FFC012B
:100C1000E251FB4F859194910895CF93DF930E9409
:100C2000F2050E94C707EC018115904508F041C00C
:100C3000C11580E4D80708F028C1C83ED10510F5D9
:100C4000C03ED10508F09FC1C83AD10578F4C53A35
:100C5000D10508F0A2C0C130D10509F494C108F44F
:100C600045C1C430D10508F08EC140C1CF3BD1058C
:100C700008F49EC0C03CD10508F438C1CE01805CA8
:100C80009109F5C0C11590E2D90758F4C11521E0CA
:100C9000D20708F078C1C03FD10508F427C1D0655C
:100CA00072C1C11580E3D80708F0E5C0CE019F707E
:100CB000DEC0C11595E5D90708F043C0C11524E58C
:100CC000D20708F0F9C0C11582E5D80708F5C115AB
:100CD00091E5D90708F0DCC0CE0174E096958795C0
:100CE0007A95E1F783709C2F937021E030E002C089
:100CF000220F331F9A95E2F73C68382BCF70C695C8
:100D0000C69580E2C89FE0011124C22BD32B3BC1C2
:100D10009E01237033278C2F86958695C115D34568
:100D200008F0BBC0C1E0D0E002C0CC0FDD1F2A95A7
:100D3000E2F720E2829FC0011124C82BD92BDC6886
:100D400022C1C11529E5D207A0F4C11588E5D8074D
:100D500008F0B7C0C11596E5D90708F0C7C08C2FB9
:100D60000E945B088F71C82FD0E0DC2FCC27D062A7
:100D70000AC1C1152AE5D20708F4A8C0CE019056D1
:100D80008115904208F0B2C08D2F8F710E945B08D0
:100D9000DD27D0628F71D82BF6C0C53AD10509F492
:100DA000A8C0C63AD10509F0A7C0C2E8D0E4EBC09C
:100DB000C83AD10509F4A3C0C93AD10509F4A2C0C3
:100DC000CA3AD10509F4A1C0CB3AD10509F4A0C0B3
:100DD000CC3AD10509F49FC0CB3BD10509F49EC0A4
:100DE000CC3BD10509F49DC0CD3AD10509F49CC096
:100DF000C03BD10509F49BC0CE3AD10509F49AC095
:100E0000CF3AD10509F499C0C13BD10509F498C086
:100E1000C23BD10509F497C0C33BD10509F496C084
:100E2000C43BD10509F495C0C53BD10509F494C074
:100E3000C63BD10509F493C0C73BD10509F492C064
:100E4000C83BD10509F491C0C93BD10509F490C054
:100E5000CD3BD10509F48FC0CE3BD10509F48EC03E
:100E6000CA3BD10509F48DC0C0E0D4E48CC00E9417
:100E70000506EC0188C0CE019927D3FF03C0EC0121
:100E8000D86C81C0EC01D06C7EC0DF70D06A7BC0B2
:100E9000DC2FCC27C16FD06A76C0C1E0D0E002C0A1
:100EA000CC0FDD1F2A95E2F720E2829FC0011124BA
:100EB000C82BD92BDA6867C0DC2FCC27C46FD06A67
:100EC00062C0DC2FCC27C06FD06A5DC08C2F8F70C2
:100ED0000E945B0894E0D695C7959A95E1F7CF708C
:100EE000D0E0DC2FCC27D069C82B4DC0C0E0D0E0CB
:100EF0004AC0C1E8D0E447C0C3E8D0E444C0C2EE71
:100F0000D4E441C0C9EED4E43EC0CAEED4E43BC050
:100F1000C5EBD4E438C0C6EBD4E435C0C3EBD4E4AD
:100F200032C0C4EBD4E42FC0C7EBD4E42CC0CCEC6B
:100F3000D4E429C0CDECD4E426C0C3E8D5E423C072
:100F4000CAE8D5E420C0C2E9D5E41DC0C4E9D5E4AF
:100F50001AC0C1E2D6E417C0C3E2D6E414C0C4E2AA
:100F6000D6E411C0C5E2D6E40EC0C6E2D6E40BC09A
:100F7000C7E2D6E408C0CFE6D4E405C0C0E7D4E4B5
:100F800002C0CAE2D6E4CE01DF91CF910895823843
:100F9000910569F1B0F48133910509F46DC048F40D
:100FA0008932910509F463C08A32910509F469C058
:100FB00008958533910509F455C089339105B9F039
:100FC0000895833E910569F138F4803E9105B1F0B2
:100FD000823E910509F10895863E9105A9F1873E6B
:100FE0009105B9F1843E910509F064C023C02091B8
:100FF000BF0220FD4FC021FD4DC008958091BF026A
:1010000080FD44C08091C00280FF44C08091BF0237
:1010100084FD42C083EE4DC08091BF0282FF38C084
:10102000F5CF8091BF0282FD33C08091C00280FD68
:1010300031C0ECCF8091C00281FF32C08091BF02ED
:1010400084FD2AC087EE35C08091BF0283FF26C091
:10105000F5CF8091BF0283FD21C08091C00281FD48
:101060001FC0ECCF8091BF0285FD1CC01DC08091C8
:10107000BF0285FD19C016C08091BF0286FD16C053
:1010800017C08091BF0286FD13C010C089E311C054
:1010900082EE0FC080EE0DC080E00BC086EE09C06E
:1010A00084EE07C089E205C085E303C08AE201C07F
:1010B00081E390E008959091BF0292FF0DC0282F28
:1010C0002871283019F4877F846006C0282F247186
:1010D000243011F48B7F886093FF0DC0282F287176
:1010E000283119F4877E846106C0282F24712431A9
:1010F00011F48B7E88612091C00220FF0DC0382F33
:101100003871383019F4877F816006C0382F31710B
:10111000313011F48E7F886021FF0DC0282F287197
:10112000283119F4877E816106C0282F2171213171
:1011300011F48E7E886194FD877E08950C94AC0432
:101140000C94AD04E82FF0E0EE0FFF1FE159FE4FC5
:101150008081918108950895CF93DF93A2E3B1E058
:1011600048E351E061E070E08D91E82FE295EF7087
:10117000F0E021A18F70EB0102C0CC0FDD1F8A953A
:10118000E2F7CE019C2F9095922391A392A1892BF7
:1011900082A34A175B0741F7A3E2B1E042E351E0C3
:1011A00061E070E08D91E82FE295EF70F0E021A111
:1011B0008F70EB0102C0CC0FDD1F8A95E2F7CE01E4
:1011C0009C2F9095922391A392A1892B82A34A17D9
:1011D0005B0741F7EBE7F1E0AFE6B1E087E891E0CC
:1011E000119211921D921D928E179F07C9F786E0EA
:1011F0000E949D09DF91CF910C9457053F924F9229
:101200005F926F927F928F929F92AF92BF92CF9296
:10121000DF92EF92FF920F931F93CF93DF9362E3DE
:1012200071E0ABE7B1E027E8622E21E0722E412C9D
:1012300001E010E05D018D909C90119711961C9239
:101240001E92EB018991BE01E82FE295EF70F0E06C
:1012500021A18F70A80102C0440F551F8A95E2F7A3
:10126000CA01242B21A322A1342E3094232122A3AE
:1012700050EA5A95F1F793E2E92E91E0F92E40E019
:1012800050E0E70159907E01252D22952F7030E026
:10129000E90128A1CD90DC90119730E0D52DDF70C9
:1012A00002C035952795DA95E2F720FD08C0980130
:1012B000042E02C0220F331F0A94E2F702C020E07E
:1012C00030E0C22AD32A1196DC92CE924F5F5F4F54
:1012D0004F305105B1F691A1D32DD923D1A392A1BD
:1012E000892B82A3129681E0F50120813181281596
:1012F000390509F480E0482A6A167B0609F09ACF7E
:10130000242D46E06FE671E08BE791E00E949E0994
:101310000E946105842DDF91CF911F910F91FF9065
:10132000EF90DF90CF90BF90AF909F908F907F9085
:101330006F905F904F903F9008950895FF920F93A4
:101340001F93CF93DF93F82E092F162FD72FC42F7B
:10135000222349F081E0809389010E94AD2090937F
:10136000880180938701809189018823D9F0809139
:101370008701909188010E94B920069798F0EF2D7F
:10138000F02FA12FBD2F80E090E04C2F50E084176C
:10139000950734F4219131912D933D930196F7CF28
:1013A00010928901DF91CF911F910F91FF900895C5
:1013B000EF92FF920F931F93CF93DF93F62E472F59
:1013C000E82FF0E0711106C0EB5FF94F6491762FC2
:1013D000862F72C0272F30E0EB5FF94FE4910E2F7C
:1013E00010E056E0659FC0011124CFEFD0E0BE01B0
:1013F0000E948D2A5BEA5603C001579F900D11246D
:101400008F0D911D8F0D911D982F990F890F7E01C2
:10141000E21AF30AE09ED001E19EB00DF09EB00DFD
:101420001124489FA0011124452F55277E01E41A5D
:10143000F50AE09EA001E19E500DF09E500D112492
:101440007E01E81AF108E29EC001E39E900DF29E33
:10145000900D1124892F9927C81BD90BC09FC0015B
:10146000C19F900DD09F900D11246230710591F0B5
:1014700048F461157105E1F061307105A9F48B2F15
:10148000752F19C06430710561F038F06630710550
:1014900079F00AC0892F7B2F0EC08E2F7B2FE52F6E
:1014A0000AC08E2F792F02C0852F7E2FEB2F03C00D
:1014B0008B2F7E2FE92F6E2FDF91CF911F910F91F0
:1014C000FF90EF9008950895CF93DF93762FE90171
:1014D000682F842F0E94D809798368838A83DF91DB
:1014E000CF91089580918402282F269530E0211510
:1014F000310519F48170826005C02532310524F070
:101500008170886480938402089588E090E00C9450
:10151000D02ACF92DF92EF92FF926B017C010E9462
:10152000720AB701A60188E090E0FF90EF90DF908B
:10153000CF900C94EE2AE4E8F2E083E080831182FD
:101540008FEF828383831482608171818281938192
:101550000C94890A8091840280FF02C086950895C8
:1015600080E0089580918802833018F48F5F809323
:101570008802609184027091850280918602909128
:1015800087020C94890A80918802882319F081507F
:101590008093880260918402709185028091860216
:1015A000909187020C94890A6091040170E0809107
:1015B000840280FF0AC080918E0123E0829FC001D7
:1015C000112487579D4F0C94561080918D01909156
:1015D0000301891780F7E82FF0E09F01220F331FE6
:1015E000E20FF31FE757FD4F1182108212828F5FC7
:1015F000F0CF9091840290FF16C090918D012091C0
:101600000301921770F4E92FF0E0DF01AA0FBB1F6E
:10161000EA0FFB1FE757FD4F8183608342839F5F83
:10162000F0CF0C94D40A0895CF93DF9300D01F928B
:10163000CDB7DEB79091840290FF0AC09E012F5F64
:101640003F4F0E94640A4B8169818A810E94F90A96
:101650000F900F900F90DF91CF910895CF93DF936C
:10166000EC01EC81F0E0E050FB4F4491E4E8F2E063
:10167000628181810E94140B8C818F5F8C83DF914A
:10168000CF910895CF93DF93EC01E4E8F2E043813A
:1016900062818C810E94140B8C818F5F8C83DF911F
:1016A000CF9108950F931F93CF93DF9300D01F9294
:1016B000CDB7DEB78C0180918A0181110AC09E01ED
:1016C0002F5F3F4F4FEF6FEF0E94640A8A81809334
:1016D0008A01F8018481813051F028F0823061F470
:1016E00040918A010AC080918A0140E007C0609160
:1016F0008A0140E080E003C040E080E060E00E94BA
:10170000F90AF801848190E0019663E070E00E949C
:10171000A12A84830F900F900F90DF91CF911F919A
:101720000F910895AF92BF92CF92DF92EF92FF9206
:101730000F931F93CF93DF9300D01F92CDB7DEB7E7
:10174000182FF62E042FE22E9091840290FF6DC088
:10175000E92FE695AE2FB0E0A85CBE4F8C91809348
:1017600096019E7F923061F49E012F5F3F4F812F43
:101770000E94640A4B8169818A810E94F90A43C0F0
:10178000823019F4009187023EC0863019F410911E
:10179000850239C08930D9F38931A9F5E9518E2FF5
:1017A0008170D82EE695F0E0E050FA4FA590B49005
:1017B000C12CBB2460910201C61618F52C2D30E017
:1017C000A29EC001A39E900DB29E900D112470E0C8
:1017D0000E948D2A812FD11002C0860F01C0861B66
:1017E00090918D01290F311DA901440F551F240F20
:1017F000351F27573D4F402F6F2D0E94640AC39419
:10180000D9CF0E94D40A10938502F09286020093E9
:101810008702EE2051F060918402709185028091E0
:101820008602909187020E94890A0F900F900F9074
:10183000DF91CF911F910F91FF90EF90DF90CF90AC
:10184000BF90AF900895E4E8F2E09181282F4381A2
:10185000628188E0890F0C94920B81E00C94230C38
:10186000E4E8F2E09181282F4381628188EF890FBB
:101870000C94920B81E00C94300CE4E8F2E062816D
:1018800028E0620F08F46FEF282F438181810C94C8
:10189000920B81E00C943D0CE4E8F2E0628128E0D8
:1018A000621B08F460E0282F438181810C94920B25
:1018B00081E00C944C0CE4E8F2E0438128E0420F14
:1018C00008F44FEF282F628181810C94920B81E004
:1018D0000C945B0CE4E8F2E0438128E0421B08F43E
:1018E00040E0282F628181810C94920B81E00C945E
:1018F0006A0C20E00C94920BFF920F931F93CF93EE
:10190000DF93EC01F12C0FEF10E060910201F6166D
:10191000F0F480918D012F2D30E0280F311DC90189
:10192000880F991F280F391F27573D4F70E0C801B6
:101930000E94A12A962F8C81409187026091860295
:10194000F99E800D11240E94640AF394DECF0E9458
:10195000D40A9A818C8190FF02C08F5F01C08150B0
:101960008C83DF91CF911F910F91FF900895BF92CB
:10197000CF92DF92EF92FF920F931F93CF93DF935B
:10198000FC01828180FF02C00FEF01C001E010E086
:1019900080910201181708F040C080918D01C12E7E
:1019A000D12CE601C80FD11DCE01880F991FC80F99
:1019B000D91FC757DD4F198218821A8234E0E32EEF
:1019C000F12CB12C80918C018B0D813114F08F7032
:1019D00005C087FF03C090910201890F082E000CFB
:1019E000990BC816D90691F4809187028E9DA001AB
:1019F0008F9D500D112455954795559547959E01FE
:101A000060918602809185020E94640AB00EF1E026
:101A1000EF1AF108B9F61F5FBBCF0E94D40A80917C
:101A20008C01013031F4811102C08091020181509A
:101A300007C090E001966091020170E00E94A12A27
:101A400080938C01DF91CF911F910F91FF90EF90C8
:101A5000DF90CF90BF900895CF9380918D019091AA
:101A60000301891770F4E82FF0E09F01220F331F64
:101A7000E20FF31FE757FD4F1182108212828F5F32
:101A8000F0CFC0E060910201C617C0F5EC2FF0E086
:101A900070E0CF010E94A12A20918D01820F209138
:101AA0008B01022E000C330B90E0E217F307CCF011
:101AB00020910101022E000C330B2E173F078CF0F2
:101AC0009C01220F331F820F931F9C0127573D4F0C
:101AD0004091870260918602809185020E94640A8B
:101AE0000BC0FC01EE0FFF1F8E0F9F1FFC01E7577D
:101AF000FD4F118210821282CF5FC4CF0E94D40AA0
:101B00002091000180918B01820F80938B01909135
:101B10000101920F9093010119165CF4082E000C3C
:101B2000990B4091020150E04150510984179507EB
:101B30001CF0219520930001CF9108950F931F93DE
:101B4000CF93DF938C01FC01848195810196817094
:101B5000992795838483C0E0D5E580910201C81759
:101B600000F580918D012C2F30E0280F311DC90127
:101B7000880F991F280F391F27573D4F4C2F469527
:101B8000F80184819581840F911D817040918702B5
:101B9000609186028D9F802D11240E94640ACF5F80
:101BA000DCCFDF91CF911F910F910C94D40A0F934A
:101BB0001F93CF93DF93EC0100E010E080910201CE
:101BC000282F30E00217130724F590918D0198011A
:101BD000290F311DA901440F551F240F351F275709
:101BE0003D4F869590E04C81081719071CF444235B
:101BF00031F002C0411103C04091870201C040E0B2
:101C000060918602809185020E94640A0F5F1F4FD7
:101C1000D5CF0E94D40A8C8190E0019681709927DB
:101C20008C83DF91CF911F910F910895E4E8F2E04A
:101C300080818E7F808360817181828193810E9407
:101C4000890A109297012FEF80E792E0215080409F
:101C50009040E1F700C000000C94D40AE4E8F2E000
:101C600080818E7F8083109297012FEF80E792E032
:101C7000215080409040E1F700C000000C94D40A4D
:101C800060918402669570E04BE050E085E091E061
:101C90000E94BB2A892B19F481E0809397010E944E
:101CA000AD209093900180938F01089590918402CC
:101CB00090FF35C09170811102C0926006C08532DC
:101CC00010F0986402C0880F982B909384026623CA
:101CD00051F060918402709185028091860290910A
:101CE00087020E94890A60918402669570E04BE049
:101CF00050E085E091E00E94BB2A892B19F01092F8
:101D0000970102C00E94400E81E0809392014091B1
:101D1000870260918602809185020C94790C089567
:101D2000682F90918402969581E0890F853208F0A2
:101D300081E00C94560E81E00C94900E682F9091E7
:101D4000840296958FEF890F09F484E20C94560E65
:101D500081E00C949E0E61E00C94560EE4E8F2E0F3
:101D600080818160808386950C94AB0E8091840283
:101D700080FD0C94160E0C94AE0E60E00C94560E82
:101D80008091950181112EC00E94D41E811104C042
:101D90000E94741F0E949B0A0E94850A609384021D
:101DA0007093850280938602909387026E7F61F420
:101DB0000E949B0A0E94850A6093840270938502A8
:101DC00080938602909387020E94720A1092970174
:101DD0008091840280FF03C086950E94BD0E81E041
:101DE000809395010895E4E8F2E08081816080832A
:101DF00086950C94BD0E1092970108950F931F9332
:101E0000CF93DF9380919701882309F48CC0809150
:101E10009601E0918402E695E81BE09391018230FF
:101E200049F4F0E0E450FB4FE491CE2FD0E00EE215
:101E30001BE049C0863049F4F0E0E750FB4FE491E5
:101E4000CE2FD0E002E41BE03EC0893051F4E6958D
:101E5000F0E0EA50FB4FE491CE2FD0E00CE71CE01D
:101E600032C08F3051F4E695F0E0ED50FB4FE49135
:101E7000CE2FD0E007EB1CE026C0853149F4F0E01E
:101E8000E051FB4FE491CE2FD0E00CE21DE01BC0EF
:101E9000883181F0833239F4EEEEF4E0C591D491CB
:101EA00002E51BE010C0843251F4C4EFD1E007ED2D
:101EB0001DE009C0C8EED3E00EE91DE004C0C0ED8E
:101EC000D7E003E61AE080919201882389F010920E
:101ED00092010E94AD209E0120953095820F931FA4
:101EE0009093900180938F0110929401109293012E
:101EF00080918F01909190010E94B9208C179D07CD
:101F000090F0E0918F01F0919001CE0FDF1FD09300
:101F10009001C0938F018FE891E0F801DF91CF919C
:101F20001F910F910994DF91CF911F910F91089507
:101F3000882311F0FA0101C0FB010994CF93DF93CC
:101F4000C82FD62F0E94AA0A8C1740F00E94AA0A16
:101F50008D1720F4DF91CF910C949B0E8C2FDF9185
:101F6000CF910C94AB0E0F931F93CF93FB01C281C3
:101F7000CC2309F463C08C010E94231E8272F801F5
:101F8000E25CFC45E431F10508F059C0EA5AFF4F24
:101F90000C94B52A0E94B60E06C048EA5EE06BE9D2
:101FA0007EE00E94980FC0E04AC04BE95EE068EA1C
:101FB0007EE0F7CF4AE35CE06DE27CE0F2CF4DE2F9
:101FC0005CE06AE37CE0EDCF48E55CE069E47CE05E
:101FD000E8CF49E45CE068E57CE0E3CF46E75CE01D
:101FE00067E67CE0DECF47E65CE066E77CE0D9CFE1
:101FF00043EC5AE062EB7AE0D4CF42EB5AE063EC78
:102000007AE0CFCF81E017C065E082E010C068E0E1
:1020100086E00DC06EE089E00AC064E18FE007C091
:1020200067E185E104C088E106C062E289E10E94BF
:102030009E0FB9CF83E20E94AB0EB5CFC1E08C2FCB
:10204000CF911F910F91089525B1342F30952323FF
:1020500035B1432B3FB7F894FC01680F791FE617A1
:10206000F70789F0819198E045B9000000C087FF2B
:1020700025B9880F000000C000C000C025B900C00D
:102080009A9591F7ECCF3FBF089524B1242B24B942
:102090009B01220F331F620F731F0E94241087ECD5
:1020A00090E00197F1F700C00000089541E00C9422
:1020B00045100C94890453985B9A52985A9A89B1A6
:1020C00083FB882780F94A9902C090E001C092E022
:1020D000892B80939A010895E0919A01EE0FEE0FFB
:1020E000E0939A0149B143FB882780F990E049B118
:1020F00042FB222720F930E042FF02C022E030E01C
:10210000822B932B8E2B80939A018F70E82FF0E017
:10211000E35AFE4F908180919901890F8093990134
:1021200084304CF0809198018F5F8093980161E03A
:1021300080E00E945910809199018D3F4CF480916C
:10214000980181508093980160E080E00E945910CE
:1021500080919901837887FF03C081508C6F8F5FD6
:102160008093990108950F931F93CF93DF93C62F08
:10217000D42F122FFC0182818823C9F060939D0126
:102180000E94AD2090939C0180939B0180E28C0F74
:10219000883008F057C0C77081E001C0880FCA9529
:1021A000EAF7DF91CF911F910F910C9497158091D1
:1021B0009D01681330C080919B0190919C010E9409
:1021C000B920883C910538F500E20D0FCD17B9F024
:1021D00080E28C0F883040F4C77081E001C0880F26
:1021E000CA95EAF70E949E15083028F581E09D2FD8
:1021F000977001C0880F9A95EAF70E949715812F72
:102200000E9484150830F0F4D77081E001C0880F77
:10221000DA95EAF70AC080E28C0F883098F4C7702C
:1022200081E001C0880FCA95EAF7DF91CF911F9135
:102230000F910C949E15812FDF91CF911F910F91DB
:102240000C948415DF91CF911F910F9108959C01FB
:10225000CB01233F4CE53407F9F078F4283DFCE549
:102260003F07B9F0293D4CE5340711F1273D3C45C6
:1022700031F526E241EE61EE1EC0253FFCE53F0749
:1022800099F070F0263F3C45D1F427E245EE66EE2A
:1022900012C027E245EE0EC026E241EE60EE0BC012
:1022A00027E245EE64EE07C026E241EE62EE03C08F
:1022B00028E241E065EE0E94B31080E00895FC0141
:1022C0008281882319F010929D01089581E008957C
:1022D000CF93DF93EC01FB018281882309F41FC1B6
:1022E000C230FCE5DF0708F41BC1C6319CE5D90705
:1022F00038F09E012A5F3C452930310508F010C1B5
:102300000E94E71E9093C0028093BF02C031ECE5AB
:10231000DE0709F4C3C008F041C0C8308CE5D80717
:1023200009F49AC0F0F4C430ECE5DE0709F487C084
:1023300068F4C2308CE5D80709F477C0C330DC45B7
:1023400009F0E3C08091BF02826076C0C630ECE540
:10235000DE0709F46EC008F07BC08091BF02886080
:102360006BC0CC308CE5D80709F485C068F4CA305E
:10237000ECE5DE0709F474C008F079C00E9440184B
:102380008091BF02806858C0CE308CE5D80709F430
:1023900076C008F07FC08091BF028BC0CB3FECE5D8
:1023A000DE0709F44FC018F5C3318CE5D80709F4EE
:1023B0007DC078F4C131ECE5DE0709F473C0C231A9
:1023C000DC4509F0A2C00E9440188091BF028F77BF
:1023D00033C0C5318CE5D80709F472C008F486C053
:1023E000CA3FDC4509F091C08091C0023EC0CF3F9A
:1023F000FCE5DF0709F45FC058F4CD3F9CE5D90741
:1024000009F444C008F43FC08091C00282602DC02E
:10241000C130FDE5DF0709F475C008F45DC0C230C6
:10242000DD4509F072C080E06EC08091BF0281601E
:1024300003C08091BF0280618093BF0266C080911B
:10244000BF0211C08091C00282608093C0025DC053
:102450008091BF028062F0CF8091BF028064ECCF98
:102460008091BF0288608460E7CF8160EECF809169
:10247000BF028E7FE1CF8091BF028D7FDDCF809143
:10248000BF02877FD9CF8091C00218C08091C0025F
:102490008D7FDBCF8091BF028F7ECECF8091BF0238
:1024A0008F7DCACF8091BF028F7BC6CF8091BF0244
:1024B000877F8B7FC1CF8091C0028D7F8E7FC5CFFC
:1024C0008091BF0282FB222720F991E0922790FBA6
:1024D00082F990FB83F9B0CF8091C002982F90953C
:1024E00091708E7F892B90FB81F9AFCF0E944018AD
:1024F0008091BF0287FB222720F991E0922790FB71
:1025000087F99ACF81E00E94761F8091BF02909157
:10251000C0020E94F81E0E94401880E001C081E0C5
:10252000DF91CF9108959093A3018093A201089524
:10253000E091A201F091A301309721F00190F08188
:10254000E02D099480E00895E091A201F091A301AB
:10255000309799F020912201222359F02091BF0257
:1025600027FF07C0DC012C9111962C93119725E0D1
:102570002C930280F381E02D09940895E091A2014B
:10258000F091A301309739F022E0DC012C93048014
:10259000F581E02D099408952091A0013091A101C9
:1025A0002817390771F09093A1018093A001E09161
:1025B000A201F091A301309721F00680F781E02D70
:1025C0000994089520919E0130919F0128173907A1
:1025D00071F090939F0180939E01E091A201F09190
:1025E000A301309721F00084F185E02D099408952E
:1025F00085B7806885BF85B7806885BF08950895D1
:102600000C94FF120C9400130C94FF120C94FF1204
:102610000E94F8120E9404130C94021381E00895A2
:102620000E94A4200E94AC080E942D210E94C00E8E
:102630000C9406137F928F929F92AF92BF92CF928B
:10264000DF92EF92FF920F931F93CF93DF93CDB75B
:10265000DEB72A970FB6F894DEBF0FBECDBF0E943B
:10266000FE080E940E13811111C08FEF89838A83A7
:102670001B820E94AD208160782F9D838C834981CD
:102680005A816B818D810E94CA134FC045EAA42EE6
:1026900041E0B42E00E010E0702E802F0E94A208CE
:1026A0006C01F501819091905F0188269926811433
:1026B000910431F40F5F1F4F0630110569F7D5CF34
:1026C0008091530281FD0E94AB0880E0EE24E394E8
:1026D000F12C94012E213F21232B09F18E837F823F
:1026E000CE20DF2081E0CD2809F480E088870E9499
:1026F000AD208160782F9A8789874E815F816885B8
:102700008A850E94CA13000F111FF801EB55FE4F76
:1027100080819181E826F926F182E08206C08F5FF0
:10272000EE0CFF1C8F30A9F6C5CF0E94BF220E947D
:1027300098129091A4018917C9F00E949812809371
:10274000A4012A960FB6F894DEBF0FBECDBFDF916D
:10275000CF911F910F91FF90EF90DF90CF90BF909E
:10276000AF909F908F907F900C946B052A960FB638
:10277000F894DEBF0FBECDBFDF91CF911F910F91B7
:10278000FF90EF90DF90CF90BF90AF909F908F9091
:102790007F900895CF93DF93CDB7DEB72B970FB619
:1027A000F894DEBF0FBECDBF4F83588769877A8705
:1027B0008B87DE01119686E0FD0111928A95E9F77B
:1027C00085E0FE01379601900D928A95E1F74981E7
:1027D0005A816B817C818D819E810E94101B2B967A
:1027E0000FB6F894DEBF0FBECDBFDF91CF91089535
:1027F000FC01808191810E94E41D0895882309F4E1
:102800001AC18238C1F40E94981281FD14C169E393
:1028100080911001909111010E94E11F0E94711E90
:102820002FEF81EE94E0215080409040E1F700C00E
:10283000000069E319C08338F9F40E94981280FD02
:10284000FAC063E580911001909111010E94E11F8F
:102850000E94711E2FEF81EE94E021508040904045
:10286000E1F700C0000063E5809110019091110133
:102870000E94EC1F0C94711E8438C1F40E949812BF
:1028800082FDD9C067E480911001909111010E94EE
:10289000E11F0E94711E2FEF81EE94E021508040D5
:1028A0009040E1F700C0000067E4DECF9CEF980F96
:1028B000913A40F4682F80911001909111010E948B
:1028C000E11FD8CF90E2980F983050F4877091E0D4
:1028D00001C0990F8A95EAF7892F0E94261ECACF58
:1028E0009BE5980F933070F4853A29F0863A31F0E1
:1028F00083E890E005C081E890E002C082E890E0C3
:102900000C94CC1298E5980F973108F08EC0883A55
:1029100009F445C0893A09F445C08A3A09F445C02A
:102920008B3A09F445C08C3A09F445C08B3B09F455
:1029300045C08C3B09F445C08D3A09F445C0803B45
:1029400009F445C08E3A09F445C08F3A09F445C0F0
:10295000813B09F445C0823B09F445C0833B09F43F
:1029600045C0843B09F445C0853B09F445C0863B1E
:1029700009F445C0873B09F445C0883B09F445C0CC
:10298000893B09F445C08D3B09F445C08E3B09F4F1
:1029900045C08A3B09F445C080E090E044C082EE27
:1029A00090E041C089EE90E03EC08AEE90E03BC0EE
:1029B00085EB90E038C086EB90E035C083EB90E08B
:1029C00032C084EB90E02FC087EB90E02CC08CEC01
:1029D00090E029C08DEC90E026C083E891E023C010
:1029E0008AE891E020C082E991E01DC084E991E08D
:1029F0001AC081E292E017C083E292E014C084E240
:102A000092E011C085E292E00EC086E292E00BC037
:102A100087E292E008C08FE690E005C080E790E092
:102A200002C08AE292E00C94E212803F20F00E9401
:102A3000C7210C94B4220895882309F464C0823815
:102A400079F40E94981281FF5EC069E380911001C1
:102A5000909111010E94E11F0E94711E69E310C054
:102A60008338B1F40E94981280FF4DC063E58091D5
:102A70001001909111010E94E11F0E94711E63E5F7
:102A800080911001909111010E94EC1F0C94711E15
:102A9000843879F40E94981282FF35C067E48091EF
:102AA0001001909111010E94E11F0E94711E67E4C4
:102AB000E7CF9CEF980F913A10F4682FE1CF90E2A6
:102AC000980F983050F4877091E001C0990F8A9563
:102AD000EAF7892F0E942C1ED9CF9BE5980F9330DF
:102AE00020F480E090E00C94CC1298E5980F973198
:102AF00020F480E090E00C94E212803F20F00E94ED
:102B00002F220C94B4220895CF93C82F0E94FE1355
:102B1000C93349F42FEF87EE93E021508040904075
:102B2000E1F700C000008C2FCF910C941C15882376
:102B300021F00E94261E0C94711E0895882321F016
:102B40000E942C1E0C94711E0895CF92DF92EF927A
:102B5000FF920F931F93CF93DF937C01062FC72F14
:102B6000FC01158112951F70D281D1110E94431E64
:102B70000E941C1E882379F0DD2369F080E2800F1B
:102B8000883048F082E00E94BB1E0E941C1E91E02B
:102B9000D82ED92601C0D12CCC2EC2948FE0C822C9
:102BA0008C2D90E0FC01E659FF4F0C94B52A8C2F38
:102BB000807FCF70882311F0C295C07FDD2399F00C
:102BC000CC2309F4C4C180E2800F883010F00111D9
:102BD00004C08C2F0E94261E03C08C2F0E94361E1C
:102BE0000E94711EB4C1802F0E941C15CC2309F4D1
:102BF000D3C180E2800F883010F0011104C08C2F07
:102C00000E942C1E03C08C2F0E943C1E0E94711E2D
:102C1000C3C18C2F807FCF70803211F0C295C07FEE
:102C2000002319F00130C9F022C0DD2371F0112317
:102C300041F0113031F40E94561E8C2B0E945E1E12
:102C4000ABC10E94561E8C2B1DC0112319F01130F0
:102C500009F4A2C10E94671E25C0DD2321F01630B1
:102C600008F09AC10EC0153008F096C11BC0DD23D4
:102C700061F0112331F0F701858180FF68C18F7009
:102C800085838C2F0E94971587C1112359F0093332
:102C900009F06EC1FFEF27EE83E0F1502040804045
:102CA000E1F764C18C2F0E949E1576C18C2F86950A
:102CB0008695837019F0813061F06EC1DD2321F0BB
:102CC000802F9C2F937002C080E090E00E94CC1275
:102CD0006BC1DD2321F0802F9C2F937002C080E018
:102CE00090E00E94E21260C1DD23F9F0053F51F04F
:102CF000063F71F0043FA9F48091B9029091BA02A5
:102D000081600BC08091B9029091BA02826005C0C7
:102D10008091B9029091BA0284609093BA02809334
:102D2000B902802F0E94C7211EC0053F51F0063F07
:102D300071F0043FA9F48091B9029091BA028E7F9C
:102D40000BC08091B9029091BA028D7F05C080912D
:102D5000B9029091BA028B7F9093BA028093B90224
:102D6000802F0E942F220E94B4221EC18C2F8370BC
:102D700009F045C0D11114C1402F429546954770C6
:102D8000440F440F602F6F70862F90E0A0E0B0E0FA
:102D9000042E04C0880F991FAA1FBB1F0A94D2F7E4
:102DA00004FF10C00FE010E020E030E004C0000F8E
:102DB000111F221F331F4A95D2F7009510952095B9
:102DC000309503C000E010E09801C695C695C37029
:102DD000BC01CD01602B712B822B932BC23049F0AB
:102DE00058F4C13019F00E94611CDAC00E944F1CD7
:102DF000D7C00E94731CD4C00E944D1CD1C0DD23DB
:102E000019F08C2F817001C08695882309F4C8C001
:102E1000402F429546954770440F440F602F6F70C6
:102E2000862F90E0A0E0B0E0042E04C0880F991F28
:102E3000AA1FBB1F0A94D2F704FF10C00FE010E0D6
:102E400020E030E004C0000F111F221F331F4A95FD
:102E5000D2F7009510952095309503C000E010E062
:102E60009801C695C695C370BC01CD01602B712B2E
:102E7000822B932BC23049F058F4C13019F00E94D4
:102E8000261D8EC00E94141D8BC00E94381D88C054
:102E90000E94871C85C0CF70DD2339F08C2F0E94E3
:102EA000AD1C802F0E9497157BC0802F0E949E151D
:102EB0008C2F0E94CE1C74C0023F01F128F4003F09
:102EC00041F0013FA1F03FC0033FF9F0043F39F169
:102ED0003AC0DD2341F0153008F05EC08C2F8F71B1
:102EE0000E94F31C59C0163008F056C0F7CFDD23FE
:102EF00039F08C2F8F710E94AD1C4EC0DD23C9F3B9
:102F00008C2F8F710E94CE1C47C0DD2329F08C2F9F
:102F10008F710E94981C40C00E94931C3DC0DD230D
:102F200049F0CF718C2F0E94AD1C63E08C2F0E9462
:102F3000A61E32C081E00E94BB1E123068F182E002
:102F40000E94BB1E29C0DD2331F0112391F2802F96
:102F50000E94FE1321C0112399F2093349F49FEF17
:102F6000E7EEF3E09150E040F040E1F700C00000F0
:102F7000802F0E941C1510C04C2F4F70602FC7016E
:102F80000E94EE050E94BE1B0FC04C2F4F70602F99
:102F9000C7010E94F10508C088EF8C0D843020F431
:102FA0000E9498120E946B05DD20C9F00E94181E35
:102FB00080FD15C0F70112820E94121E0E94AD1CF6
:102FC000C7010E94F8170E94121EDF91CF911F9136
:102FD0000F91FF90EF90DF90CF900C94CE1CDF917B
:102FE000CF911F910F91FF90EF90DF90CF900895B8
:102FF0000F931F93CF93DF93EC01988189812B81ED
:103000003C81232B31F08F3F31F481E09F3F19F455
:1030100003C081E001C080E080FD13C0CE010E94AA
:103020008405882371F0688179818A810E94EF1D6F
:103030008C010E944A1D0E943B1CB801CE010E94D7
:10304000A515DF91CF911F910F9108950E94431E06
:103050000E94531E0E94711E0E945A230E94B42295
:1030600080E090E00E94CC1280E090E00C94E212AC
:1030700080911001909111010E94F71F0C94261865
:103080000E94331E0C943818E92FE295EF704E2FF2
:1030900050E0FA013297EE30F105B0F4E658FF4FF8
:1030A0000C94B52A803F91F018F4883E68F40EC065
:1030B000843F51F40BC0883E48F0813F29F406C09C
:1030C00093FB882780F9089580E0089581E00895B2
:1030D0000E94E41D0E9444180895CF93DF9300D00E
:1030E00000D01F92CDB7DEB70F900F900F900F90CA
:1030F0000F90DF91CF910895CF93DF9300D000D050
:1031000000D0CDB7DEB726960FB6F894DEBF0FBE5F
:10311000CDBFDF91CF9108951F93CF93DF93C091DF
:10312000B20116E08091B301C81799F0D0E01C9F5E
:10313000F0011D9FF00D1124EC54FE4F4081518190
:1031400062817381848195810E947C182196C77069
:10315000E9CFDF91CF911F9108954091E401509103
:10316000E5016091E6017091E7018091E80190919D
:10317000E9010C947C18CF938091E90182958F70BE
:1031800009F05FC08091E601882309F45AC080915C
:10319000B201B091B3017091E401A091E5014091B9
:1031A000E7015091E80191E07F3F09F090E0692F3D
:1031B000C6E08B1709F445C04115510521F0AF3F1A
:1031C00021F020E003C021E001C0262F90E020FD87
:1031D00035C0C89FF001C99FF00D1124EC54FE4F7B
:1031E00021812A132BC02081271328C0228121117D
:1031F00025C0238134812417350710F4215031096B
:10320000241B350B283C3105C8F42091E9012F70AF
:1032100020612093E90126E0289FF001299FF00D0D
:103220001124E754FE4F80818F708061808384EE8B
:1032300091E00E94F817CF910C948C18019687703A
:10324000B8CFCF910895AF92BF92CF92DF92EF9215
:10325000FF920F931F93CF93DF93CDB7DEB76197A4
:103260000FB6F894DEBF0FBECDBF8C0185E0F8012C
:10327000DE011D9601900D928A95E1F7D8014C91DF
:1032800011965C9111971296EC903091E401609147
:10329000E5018091E7019091E801009731F06F3FDF
:1032A00031F421E03F3F19F403C021E001C020E0E8
:1032B000B22FB170BB2E20FD60C1F801C380D48055
:1032C000A090E601AA2009F4EEC02091E901C816F9
:1032D000D90628F0D601A81BB90BCD0104C08095F2
:1032E00090958C0D9D1DFF24F394883C910580F0F2
:1032F000F12C207F09F09CC07C2DD98AC88A6E2DC4
:1033000089890E946D1884EE91E00E94F8172DC102
:10331000822F807F09F054C0561314C0431312C08B
:10332000FE2CE1100FC02F7020612093E9010E9454
:10333000AD1884EE91E00E94F8178091E901F80140
:1033400085835CC1CD2831F05F3F31F481E04F3F90
:1033500019F403C081E001C080E080FD03C081E07A
:103360008E2502C080E090E0F82FF170FF2E80FFE4
:103370001CC08091B2012091B30136E0821709F49C
:103380001AC190E0389FF001399FF00D1124EC54E0
:10339000FE4F6181561306C06081461303C06281EF
:1033A000E61203C001968770E9CFFE2CEE2009F4E7
:1033B00025C18091E90181608093E901F12C1EC152
:1033C000561309C0431307C0E11005C08091E901FD
:1033D000F8018583A4C04D875E878D859E850E94F8
:1033E0006818882379F1EE2069F12091E901822F94
:1033F00082958F7090E0029774F08091E401909133
:10340000E50198878F831986DB86CA862C87CE01D3
:1034100007960E94F81786E0F801A4EEB1E001904B
:103420000D928A95E1F70E94BB180E94AD180DC05D
:10343000561771F04D875E878D859E850E946818AE
:1034400081111AC0C8010E94F817FF24F394D6C056
:103450004313F0CFE110EECF8091E901F8018583AD
:10346000C8010E94F81786E0E4EEF1E0DF011D924A
:103470008A95E9F7FA2CC2C0EE2021F32091E901E8
:10348000822F82958F7090E002972CF28091E40158
:103490009091E5019A8389831B82DD82CC822E8301
:1034A000CE010196B6CFC816D90628F0F601E81B62
:1034B000F90BCF0104C0809590958C0D9D1D883C23
:1034C000910548F0F12C7C2DD98AC88A6E2D898906
:1034D0000E946D184AC0FE2CEE2009F4B3CF56139B
:1034E00033C0431331C02091E90120FD24C0822F55
:1034F00082958F70482F50E041155105E1F0D801B9
:1035000015962C9315974F30510549F08F5F982FE2
:103510009295907F822F8F70892B15968C93C8017E
:103520000E94F81786E0F801A4EEB1E001900D9238
:103530008A95E1F73DC086E0F801A4EEB1E0019084
:103540000D928A95E1F75AC04D875E878D859E85DD
:103550000E94681881115FCF8091E901816080939A
:10356000E901C8010E94F81749C0E4EEF1E086E0E5
:10357000DF011D928A95E9F71BC0EE2009F462CFA6
:103580004D875E878D859E850E946818F82E88235A
:1035900009F458CF86E0F801A4EEB1E001900D9255
:1035A0008A95E1F784EE91E00E94F8130E94BB181F
:1035B0000E94AD1823C04D875E878D859E850E9431
:1035C000E41D292F22952F70223028F49F7039F0A6
:1035D000811105C00BC0243028F49F7049F4805E2F
:1035E000883020F0C8010E94F817BF2CFB2C06C0C1
:1035F000D80115969C91907F91F7F8CF8F2D619609
:103600000FB6F894DEBF0FBECDBFDF91CF911F91F3
:103610000F91FF90EF90DF90CF90BF90AF90089503
:103620001F93CF93DF93CDB7DEB72C970FB6F894E7
:10363000DEBF0FBECDBF4F83588769877A878B87E0
:103640009C87CE0107960E9423198823D1F09F8181
:1036500088852A853B85232B31F08F3F31F481E02B
:103660009F3F19F403C081E001C080E080FD47C0A6
:103670004F81588569857A858B859C850E947C1849
:103680003EC086E0FE013796DE01119601900D9254
:103690008A95E1F7FF81E8856A857B85611571056B
:1036A00031F0EF3F31F481E0FF3F19F403C081E0D6
:1036B00001C080E080FD23C02091B30130E0C9014A
:1036C0000196877099274091B20150E084179507C1
:1036D000F1F1F983EA837D836C8396E0929FD001B8
:1036E000939FB00D1124AC54BE4FFE013196019052
:1036F0000D929A95E1F78093B3010E948C1816E021
:103700008091B2019091B301891771F1189FC001A6
:1037100011248C549E4F0E942319882329F1E09193
:10372000B2011E9FF0011124EC54FE4F40815181E3
:1037300062817381848195810E947C188091B2019D
:1037400090E00196877099278093B201D9CF0E94AB
:1037500040181092B3011092B201E4EEF1E086E05D
:10376000DF011D928A95E9F72C960FB6F894DEBF1B
:103770000FBECDBFDF91CF911F910895EF92FF92C1
:103780000F931F93CF93DF938C01892B09F46CC0A7
:10379000F12CEE24E394E8012196F801849184371A
:1037A00040F4843008F051C0813081F0823019F14A
:1037B0005BC0853709F444C0A8F19CE7980F9037A7
:1037C00008F052C08F770E941C1541C00E5F1F4F3A
:1037D000FE01849190E2980F983050F48770FE2D8E
:1037E00001C0FF0F8A95EAF78F2F0E94461E14C072
:1037F0000E94FE132DC00E5F1F4FFE01849190E2C8
:10380000980F983060F48770FE2D01C0FF0F8A95E5
:10381000EAF78F2F0E944C1E0E94711E19C00E9451
:103820001C1516C00E5F1F4FFE01C491CC2381F002
:103830008FE99FE00197F1F700C00000C150F6CF7B
:103840000E5F1F4FFE01F49003C00E94FE138E0115
:103850008F2D882309F49FCFEFE9FFE03197F1F72F
:1038600000C000008150F5CFDF91CF911F910F91E3
:10387000FF90EF900895089508950C943C1C0C94CB
:103880003D1C0E943F1C60932A0270932B02809380
:103890002C0290932D020C9426180C94411C0F932B
:1038A0001F9300912A0210912B0220912C0230913B
:1038B0002D02602B712B822B932B1F910F910C9457
:1038C000411C0F931F9300912A0210912B0220910B
:1038D0002C0230912D0260237123822393231F91A8
:1038E0000F910C94411C0F931F9300912A02109189
:1038F0002B0220912C0230912D0260277127822704
:1039000093271F910F910C94411C0C943C1C0E9416
:10391000851C60932602709327028093280290935F
:1039200029020C94261860E070E0CB010C94871CEF
:103930000F931F9341E050E060E070E08A019B012B
:1039400004C0000F111F221F331F8A95D2F7C9012F
:10395000B8011F910F910C94871C0F931F9341E0A6
:1039600050E060E070E004C0440F551F661F771FF1
:103970008A95D2F78091260290912702A091280281
:10398000B09129028A019B01082B192B2A2B3B2B72
:10399000C901B8011F910F910C94871C0F931F93BD
:1039A00041E050E060E070E004C0440F551F661F26
:1039B000771F8A95D2F740955095609570958091C4
:1039C000260290912702A0912802B09129028A0133
:1039D0009B01082319232A233B23C901B8011F9106
:1039E0000F910C94871C0F931F9341E050E060E00F
:1039F00070E004C0440F551F661F771F8A95D2F7E9
:103A00008091260290912702A0912802B09129026C
:103A10008A019B01082719272A273B27C901B801DA
:103A20001F910F910C94871C0F931F9300912602F6
:103A3000109127022091280230912902602B712BCE
:103A4000822B932B1F910F910C94871C0F931F9324
:103A5000009126021091270220912802309129021C
:103A600060237123822393231F910F910C94871C51
:103A70000F931F9300912602109127022091280294
:103A80003091290260277127822793271F910F9178
:103A90000C94871C08952FE0929F800D1124E82F2D
:103AA000E695E695E695877051E001C0550F8A9539
:103AB000EAF785E0E89FF0011124E651FE4F20E08F
:103AC00030E070E04081CB01022E02C096958795D0
:103AD0000A94E2F781708195842785238427819356
:103AE0002F5F3F4F2530310569F708952FE0929FF2
:103AF000800D1124682F669566956695982F9770AE
:103B000085E0689FB001112440E050E080E0FB01B7
:103B1000E40FF51FE651FE4F208130E0092E02C070
:103B2000369527950A94E2F721703327042E01C0B9
:103B3000220F0A94EAF7822B4F5F5F4F4530510501
:103B400031F70895BF92CF92DF92EF92FF920F93D9
:103B50001F93CF93DF938C01C0902602D090270251
:103B6000E0902802F090290280912A0290912B0285
:103B7000A0912C02B0912D02C82AD92AEA2AFB2A48
:103B8000CFE1D0E0D701C6010C2E04C0B695A795B1
:103B9000979587950A94D2F780FD04C0219790F7F6
:103BA000B12C07C0BC2EB8018C2F0E940D060197C6
:103BB000A9F38B2DDF91CF911F910F91FF90EF9083
:103BC000DF90CF90BF900895CF93DF93EC010E94D8
:103BD000A21DBE010E940D06DF91CF9108951F9393
:103BE000CF93DF93EB019091B101992321F0CB01A9
:103BF0000E94E41D13C0882349F0CB010E94A21D3E
:103C0000182F682FCE010E944B1D04C0CB010E94CB
:103C1000761D182FBE01812F0E940D06DF91CF91D6
:103C20001F91089580912E0285958595859508951B
:103C300080912E028770089590912E02977081E0F6
:103C400009F480E008958091520208959091520203
:103C5000892B809352020895809590915202892376
:103C60008093520208951092520208959091510249
:103C7000892B809351020895809590915102892358
:103C8000809351020895109251020895909150022C
:103C9000892B80935002089580959091500289233A
:103CA00080935002089510925002089580912F023F
:103CB000089508950C94591E0C945A1E90912F0249
:103CC000981721F080932F020C945C1E0895809128
:103CD0002F02882329F010922F0280E00C945C1EA2
:103CE0000895E0911001F0911101809152028083BA
:103CF000E0911001F0911101908180915102892B86
:103D00008083E0911001F091110190818091500227
:103D1000892B808380912F02882381F0E09110010C
:103D2000F09111019081892B8083809110019091F5
:103D300011010E947B1F81110E94671E809110015A
:103D4000909111010C94A4120C94591E98E0899F33
:103D500090011124262B20932E020E94AD1C8091ED
:103D60002E028595859585950C94A41E10922E02A1
:103D700080E00C94A41E20912E02809582238093D3
:103D80002E02982F977079F430E0482F082E000CFF
:103D9000550B2417350739F08595859585950E9433
:103DA000CE1C0C94B61E089580E090E00E94D62AA6
:103DB00021E08C3E9E4F09F020E0822F089582E0A2
:103DC00090E00C94C82A83E090E00C94C82ACF932A
:103DD00084E090E00E94C82AC82F81E290E00E940F
:103DE000C82A2C2F30E0A901582BCA01CF91089581
:103DF000CF93C92F682F84E090E00E94DC2A6C2FBB
:103E000081E290E0CF910C94DC2AAB01BC018FE001
:103E100090E00C94EE2AAB01BC0183E190E00C949D
:103E2000EE2A60E070E0CB010C940B1F60E070E0C4
:103E3000CB010E94051F0C94111F6CEE7EEF80E0F9
:103E400090E00E94FA2A60E082E090E00E94DC2A82
:103E500060E083E090E00E94DC2A10922A02109237
:103E60002B0210922C0210922D0260E084E090E070
:103E70000E94DC2A60E081E290E00E94DC2A60E09F
:103E800085E090E00E94DC2A60E086E090E00E94FD
:103E9000DC2A6FEF87E090E00E94DC2A40E050E0EF
:103EA000BA0188E090E00E94EE2A60E08DE090E0A8
:103EB0000E94DC2A40E050E0BA0188E190E00E94D4
:103EC000EE2A60E087E190E00E94DC2A40E050E0CA
:103ED000BA018CE190E00E94EE2A60E080E290E07E
:103EE0000E94DC2A0C94161F0C941D1F682F8EE074
:103EF00090E00C94DC2AFC01329680912201882308
:103F000031F08091BF0287FF02C09EE101C096E0C0
:103F100080E0915028F021912223D9F38F5FF9CFCF
:103F200008959C01FC0132969FEF80E04191461775
:103F300089F09F3F19F4411101C0982F8F5F86309F
:103F4000A9F79F3F39F0F901E90FF11D97FDFA95A7
:103F50006283089508959C012A5F3F4FFC014281CE
:103F6000461301C01282019682179307B9F708958C
:103F7000262F2695269526952E3168F4FC01E20F12
:103F8000F11D677021E030E001C0220F6A95EAF769
:103F90008281282B22830895262F26952695269503
:103FA0002E3170F4FC01E20FF11D677021E030E06A
:103FB00001C0220F6A95EAF7209582812823228387
:103FC000089520912201222329F02091BF0227FD8C
:103FD0000C94B81F0C94911F20912201222329F0E8
:103FE0002091BF0227FD0C94CC1F0C94AB1F209195
:103FF0002201FC013296222331F08091BF0287FF1B
:1040000002C08EE101C086E0DF011D928A95E9F7CA
:10401000089508950C9409200C940920CF930E94D0
:104020000C200E94FE080E940A20C0E08C2F0E94F3
:10403000A208892B29F4CF5FC630C1F780E001C008
:1040400081E0CF9108950C9409200C9423200E94C4
:1040500025208091C502843009F439C010925402A1
:1040600020E488E190E00FB6F894A8958093600072
:104070000FBE2093600080E00E946B050E94FB0E43
:104080008091550281110AC081E080935502809190
:1040900084028170809356020E942E0E0E94252079
:1040A00083B7817F846083BF83B7816083BF789447
:1040B000889583B78E7F83BF0FB6F894A8958091BB
:1040C0006000886180936000109260000FBE0895C8
:1040D0000C9409200E9440180E9498120E946B05BF
:1040E000109255028091560281110E94F30E0E9497
:1040F000400E0C9468201F920F920FB60F9211245D
:104100008F939F93AF93BF9380915402811113C0FB
:104110008091BB029091BC02A091BD02B091BE0201
:104120004196A11DB11D8093BB029093BC02A09348
:10413000BD02B093BE02BF91AF919F918F910F903E
:104140000FBE0F901F90189582E084BD93E095BD3F
:104150009AEF97BD80936E0008952FB7F8948091E1
:10416000BB029091BC02A091BD02B091BE022FBFD4
:104170000895CF92DF92EF92FF920F931F932FB784
:10418000F8944091BB025091BC026091BD027091C5
:10419000BE022FBF6A017B01EE24FF248C0120E0C8
:1041A00030E0C016D106E206F30610F44150510982
:1041B0009A01281B390BC9011F910F91FF90EF90B5
:1041C000DF90CF90089578941F920F920FB60F92C0
:1041D00011248F939F93AF93BF938091BB029091D3
:1041E000BC02A091BD02B091BE020196A11DB11DFD
:1041F0008093BB029093BC02A093BD02B093BE0219
:10420000BF91AF919F918F910F900FBE0F901F9014
:10421000189581E08093E00080E28093D8001092AE
:10422000C9008FE19EE40197F1F700C0000087E02C
:1042300090EBDC018093CE029093CF02A093D0024A
:10424000B093D1029CE088E10FB6F894A8958093D2
:1042500060000FBE90936000FFCF0E94D41E8111BA
:1042600002C00E94741F0E94DF1E809353020E94AE
:10427000E71E9093C0028093BF020E94E31E682F46
:1042800070E080E090E00C944D1C80915A0280FF19
:104290000BC06091150185E0689FB00111247595F0
:1042A0006795759567952BC081FF09C060911501D1
:1042B00085E0689FB00111247595679520C082FF45
:1042C00007C06091150185E0689FB001112417C0F7
:1042D000909159029923D1F060911401961788F7B3
:1042E0002091150185E0289F90011124929FA00143
:1042F000939F500D112470E0CA010E94A12A6038DA
:10430000710540F46115710519F406C065E070E0AF
:10431000862F08958FE7089581E0089580915A02CD
:1043200080FF08C06091130170E0759567957595E1
:10433000679521C081FF06C06091130170E07595FB
:10434000679519C082FF04C06091130170E010C02E
:1043500090915902992399F0609112019617A0F754
:1043600080911301899FC001112470E00E94A12A4D
:104370006038710540F46115710519F406C061E0FB
:1043800070E0862F08958FE7089581E00895803FBB
:1043900021F40E944521819504C0813F29F40E94A7
:1043A000452180935E020895823F21F40E944521B9
:1043B000819504C0833F29F40E94452180935D02CA
:1043C0000895893F19F40E948E2105C08A3F31F477
:1043D0000E948E21819580935F0208958B3F21F486
:1043E0000E948E21819504C08C3F29F40E948E2169
:1043F000809360020895843F21F480915C02816083
:1044000017C0853F21F480915C02826011C0863F15
:1044100021F480915C0284600BC0873F21F480917D
:104420005C02886005C0883F31F480915C02806145
:1044300080935C0208958D3F21F480915A0281603F
:104440000BC08E3F21F480915A02826005C08F3FDD
:1044500029F480915A02846080935A020895803F23
:1044600039F480915E0287FF6CC010925E0269C0D1
:10447000813F29F480915E021816BCF362C09091CE
:104480005D02823F29F497FF5CC010925D0259C023
:10449000833F19F41916CCF354C0893F41F480913D
:1044A0005F0218160CF04DC010925F024AC08A3F9E
:1044B00029F480915F0287FF44C0F6CF8B3F39F427
:1044C0008091600287FF3DC0109260023AC08C3F2D
:1044D00029F4809160021816BCF333C0843F21F4A4
:1044E00080915C028E7F17C0853F21F480915C0231
:1044F0008D7F11C0863F21F480915C028B7F0BC0C1
:10450000873F21F480915C02877F05C0883F31F4AA
:1045100080915C028F7E80935C0213C08D3F21F4FA
:1045200080915A028E7F0BC08E3F21F480915A02F7
:104530008D7F05C08F3F29F480915A028B7F809335
:104540005A0280915D0281110EC080915E0281113C
:104550000AC080915F02811106C0809160028111C2
:1045600002C01092590208958BE592E00E94BE129B
:104570000E94AD20909358028093570208951F9394
:10458000CF93DF9380915702909158020E94B920F7
:10459000AC0190915902992321F02091160130E04D
:1045A00006C0209117018AE0289F9001112442172C
:1045B000530708F47BC080915D02C0915E02D091E8
:1045C0005F0210916002811107C0C1116BC0D1114F
:1045D00069C0111167C06AC09F3F19F09F5F909337
:1045E0005902181624F40E94452180935D0280919F
:1045F0005D0287FF05C00E944521819580935D0281
:104600001C1624F40E94452180935E0280915E0274
:1046100087FF05C00E944521819580935E023091FD
:104620005D023323E1F020915E022223C1F045EBCD
:104630003403C0011124992319F090935D0203C043
:1046400081E080935D0235EB2303C001112499239F
:1046500019F090935E0203C081E080935E021D1604
:1046600024F40E948E2180935F0280915F0287FF75
:1046700005C00E948E21819580935F02111624F45B
:104680000E948E21809360028091600287FF05C0A6
:104690000E948E21819580936002DF91CF911F91BE
:1046A0000C94B4229F3F09F099CFAACFDF91CF910C
:1046B0001F910895EBE5F2E086E0DF011D928A95F7
:1046C000E9F71092590210925A02089580918102DE
:1046D00008950F931F93CF93DF9300D01F92CDB710
:1046E000DEB78C010E94D225823011F0843021F592
:1046F00084E089831B830A8382E08093E9008FEF43
:104700009091E800815095FD06C095ED9A95F1F7DE
:1047100000008111F5CF8091E80085FF0DC040E0D9
:1047200050E063E070E0CE0101960E94EF25809199
:10473000E8008E778093E8000F900F900F90DF9144
:10474000CF911F910F910895CF93DF9300D01F92C7
:10475000CDB7DEB72091C502243031F523E029839F
:10476000805891099B838A8382E08093E9008FEFD0
:104770009091E800815095FD06C095ED9A95F1F76E
:1047800000008111F5CF8091E80085FF0DC040E069
:1047900050E063E070E0CE0101960E94EF25809129
:1047A000E8008E778093E8000F900F900F90DF91D4
:1047B000CF910895CF93DF93EC010E94D2258230F0
:1047C00011F08430F9F482E08093E9008FEF90914A
:1047D000E800815095FD06C095ED9A95F1F700002F
:1047E0008111F5CF8091E80085FF0CC040E050E0DA
:1047F00066E070E0CE010E94EF258091E8008E77A0
:104800008093E800DF91CF910895CF93DF93EC017F
:104810000E94D225823011F08430D9F58091220196
:10482000882339F08091BF0287FF03C060E282E0F5
:1048300002C068E081E08093E9008FEF9091E8008A
:10484000815095FD06C095ED9A95F1F70000811114
:10485000F5CF8091E80085FF1CC080912201811175
:1048600005C040E050E068E070E003C070E040E068
:1048700050E0CE010E94EF258091E8008E77809372
:10488000E80080E2FE01A1E6B2E001900D928A9577
:10489000E1F7DF91CF9108958091C402811109C0A1
:1048A0000E9480270E94DD278091E200846080932F
:1048B000E20008951092C4020895089508950C949A
:1048C0006A2042E061EC81E00E94F92642E261EC5C
:1048D00082E00C94F9268091C702833009F460C00D
:1048E00030F4813071F0823009F499C008958A3033
:1048F00009F485C08B3009F46BC0893009F0A7C07A
:1049000020C08091C602813A09F0A1C08091E800E0
:10491000877F8093E8008091CA029091CB02892B17
:1049200021F460E281E692E003C060E080E090E084
:1049300070E00E943A268091E8008B778093E8002F
:1049400008958091C602813209F081C08091CA0227
:104950009091CB02029708F07AC08091E800877F9F
:104960008093E8008091E80082FD05C08091C50237
:104970008111F8CF6CC02091F3008091F20090E09B
:10498000922B029729F48091F1008B7F813021F4E2
:104990008091F100809381028091E8008B7753C071
:1049A0008091C602813A09F052C08091CA0290916A
:1049B000CB02892B09F04BC08091E800877F809360
:1049C000E8008091E80080FFFCCF8091220136C092
:1049D0008091C6028132D9F58091CA029091CB02B2
:1049E000892BA9F58091E800877F8093E8000E94D9
:1049F0002E278091C802809322010C944018809148
:104A0000C602813221F58091E800877F8093E8001B
:104A10000E942E278091C90280938202089580917E
:104A2000C602813AA1F48091E800877F8093E80074
:104A30008091E80080FFFCCF809182028093F1009A
:104A40008091E8008E778093E8000C942E270895DB
:104A500084B7877F84BF0FB6F894A89580916000D3
:104A6000886180936000109260000FBE90E080E843
:104A70000FB6F89480936100909361000FBE0E947E
:104A800008130E9480270E94DD278091E200846045
:104A90008093E20078940E94722A0E94101388E1A9
:104AA00091E00E9493128091C502853069F40E94C2
:104AB00027208091C3028823B1F30E940E2088230F
:104AC00091F30E94D925EFCF0E941A130E94FE0E87
:104AD000EACF0C946B25292F332723303105C9F0F9
:104AE00060F42130310581F02230310509F04AC0EF
:104AF0008BE390E023E337E049C02132310511F127
:104B00002232310579F13EC082E190E02EE637E0B5
:104B10003DC099278130910561F040F082309105C8
:104B200059F0039779F5E5E0F7E008C0EFE2F7E028
:104B300005C0EDE1F7E002C0EBE0F7E0849190E022
:104B40009F0124C06115710541F061307105D1F4F8
:104B500089E090E02EE537E019C089E090E025E497
:104B600037E014C06115710541F06130710551F4F1
:104B700080EC90E020E837E009C080E490E020E499
:104B800038E004C080E090E020E030E0FA013183BA
:104B9000208308958091C502843011F081E008954A
:104BA00082E0089580918302811102C00C94CA258D
:104BB000089580E189BD82E189BD09B400FEFDCF81
:104BC0008091D8008F7D8093D8008091E000826032
:104BD0008093E0008091E00081FDFCCF0895CF92AA
:104BE000DF92EF92FF920F931F93CF93DF93EC012D
:104BF0008B017A010E944D27811133C0E114F10429
:104C000039F0F70180819181081B190BC80FD91F5A
:104C1000C12CD12C0115110519F18091E80085FDF9
:104C200016C08091E8008E778093E800E114F104CB
:104C300049F0F70180819181C80ED91ED182C082CE
:104C400085E00FC00E944D27882321F30AC0899177
:104C50008093F10001501109FFEFCF1ADF0ADACF7C
:104C600080E0DF91CF911F910F91FF90EF90DF9047
:104C7000CF9008952091CC023091CD0226173707AE
:104C800048F06115710539F42091E8002E772093E2
:104C9000E80001C0B901FC0120E06115710579F15E
:104CA0008091C5028823F1F18530F1F18091E8000F
:104CB00083FD3CC08091E80082FD2EC08091E80019
:104CC00080FFEBCF2091F3008091F20090E0922BD7
:104CD0006115710551F08830910538F421912093C8
:104CE000F100615071090196F3CF21E0089709F0B6
:104CF00020E08091E8008E778093E800CECF2111EC
:104D0000CFCF0AC08091C502882361F0853061F061
:104D10008091E80083FD0AC08091E80082FFF2CF15
:104D200080E0089582E0089583E0089581E0089589
:104D30002091CC023091CD022617370748F061153B
:104D4000710539F42091E8002E772093E80001C026
:104D5000B901FC0120E06115710591F18091C50256
:104D6000882309F440C0853009F43FC08091E800F1
:104D700083FD3DC08091E80082FD2FC08091E80056
:104D800080FFE9CF2091F3008091F20090E0922B18
:104D90006115710559F08830910540F424912093F4
:104DA000F1003196615071090196F2CF21E0089728
:104DB00009F020E08091E8008E778093E800CBCF67
:104DC0002111CCCF0AC08091C502882361F08530C3
:104DD00061F08091E80083FD0AC08091E80082FFC5
:104DE000F2CF80E0089582E0089583E0089581E0A5
:104DF0000895982F973068F59093E900981739F047
:104E00007091EC002091ED005091F00003C0242F30
:104E1000762F50E021FD02C09F5FECCF3091EB0078
:104E20003E7F3093EB003091ED003D7F3093ED00FD
:104E30003091EB0031603093EB007093EC002093E5
:104E4000ED005093F0002091EE0027FDE5CF80E0CB
:104E500008958F708093E90081E008958091C602E3
:104E600087FF11C08091E80082FD05C08091C502D6
:104E70008111F8CF11C08091E8008B770BC0809131
:104E8000C502882349F08091E80080FFF8CF809127
:104E9000E8008E778093E80008952091E400309137
:104EA000E50095E64091EC00842F817040FF23C01F
:104EB0008091E80080FD1DC08091C502882399F093
:104EC000853099F08091EB0085FD11C04091E400A0
:104ED0005091E5002417350729F3915011F09A01FC
:104EE000E1CF84E0089582E0089583E0089581E0B1
:104EF000089580E008954091E80042FFDDCF0895D5
:104F00000E94EE270E94F627E0EEF0E080818160AB
:104F10008083E8EDF0E080818F77808319BCA7ED76
:104F2000B0E08C918E7F8C9380818F7E80831092F5
:104F3000C40208950F931F93CF93DF930E94EE272F
:104F40000E94F627C8EDD0E088818F77888388811A
:104F50008068888388818F7D888319BC1092C50200
:104F60001092C1021092C3021092C20200EE10E031
:104F7000F80180818B7F808388818160888342E013
:104F800060E080E00E94F926E1EEF0E080818E7F13
:104F90008083E2EEF0E080818160808380818860A0
:104FA0008083F80180818E7F8083888180618883FF
:104FB000DF91CF911F910F910895E8EDF0E080818E
:104FC0008F7E8083E7EDF0E080818160808384E0E4
:104FD00082BF81E08093C4020C949A27E8EDF0E050
:104FE00080818E7F80831092E20008951092DA0013
:104FF0001092E10008951F920F920FB60F921124A4
:105000002F933F934F935F936F937F938F939F93D0
:10501000AF93BF93EF93FF938091E10082FF0BC0AA
:105020008091E20082FF07C08091E1008B7F809336
:10503000E1000E94712A8091DA0080FF1FC08091F8
:10504000D80080FF1BC08091DA008E7F8093DA0049
:105050008091D90080FF0DC080E189BD82E189BDCA
:1050600009B400FEFDCF81E08093C5020E944C246C
:1050700005C019BC1092C5020E945A248091E1001B
:1050800080FF19C08091E20080FF15C08091E2008E
:105090008E7F8093E2008091E20080618093E20045
:1050A0008091D80080628093D80019BC85E08093FD
:1050B000C5020E945E248091E10084FF30C080918F
:1050C000E20084FF2CC080E189BD82E189BD09B482
:1050D00000FEFDCF8091D8008F7D8093D800809115
:1050E000E1008F7E8093E1008091E2008F7E8093CB
:1050F000E2008091E20081608093E2008091C10231
:10510000882311F084E007C08091E30087FD02C08E
:1051100081E001C083E08093C5020E945F248091FA
:10512000E10083FF29C08091E20083FF25C08091C8
:10513000E100877F8093E10082E08093C5021092B6
:10514000C1028091E1008E7F8093E1008091E200B6
:105150008E7F8093E2008091E20080618093E20084
:1051600042E060E080E00E94F9268091F0008860D3
:105170008093F0000E945D24FF91EF91BF91AF9169
:105180009F918F917F916F915F914F913F912F915F
:105190000F900FBE0F901F9018951F920F920FB691
:1051A0000F9211242F933F934F935F936F937F93AD
:1051B0008F939F93AF93BF93CF93DF93EF93FF931F
:1051C000C091E900CF708091EC00D82FD17080FDA4
:1051D000D0E81092E9008091F000877F8093F00082
:1051E00078940E9411291092E9008091F000886063
:1051F0008093F000CD2BCF70C093E900FF91EF9129
:10520000DF91CF91BF91AF919F918F917F916F91DE
:105210005F914F913F912F910F900FBE0F901F9074
:1052200018951F93CF93DF93CDB7DEB7AA970FB62C
:10523000F894DEBF0FBECDBFE6ECF2E08091F10046
:10524000819322E0EE3CF207C9F70E946B24809123
:10525000E80083FF2EC18091C6029091C702492FBA
:1052600050E04A30510508F024C1FA01E857FF4FD9
:105270000C94B52A803821F0823809F01AC108C090
:105280008091C2029091C302992389F082600FC07D
:105290008091CA028F70873008F00BC18093E900BB
:1052A0008091EB0085FB882780F91092E9009091AE
:1052B000E800977F9093E8008093F1001092F1004E
:1052C000D1C0282F2D7F09F0F4C0882319F0823037
:1052D00061F0EFC08091C802813009F0EAC09330DC
:1052E00009F080E08093C3022EC08091C802811132
:1052F0002AC08091CA028F702FEF280F263008F045
:10530000D8C08093E9002091EB0020FF1CC09330AF
:1053100021F48091EB00806214C09091EB009061C9
:105320009093EB0021E030E0A90102C0440F551F2B
:105330008A95E2F74093EA001092EA008091EB0030
:1053400088608093EB001092E9008091E800877FED
:105350008093E8000E942E27ACC08111AAC0109152
:10536000C8021F778091E3008078812B8093E3004F
:105370008091E800877F8093E8000E942E2780912B
:10538000E80080FFFCCF8091E30080688093E30019
:10539000111102C082E001C083E08093C50289C080
:1053A0008058823008F085C08091C8029091C9026F
:1053B0008C3D53E0950779F583E08A838AE28983FF
:1053C0004FB7F894DE01139620E03EE051E2E32F60
:1053D000F0E050935700E49120FF03C0E295EF7096
:1053E0003F5FEF708E2F90E0EA3010F0C79601C05B
:1053F000C0968D939D932F5F243149F74FBF8091C5
:10540000E800877F8093E8006AE270E0CE010196B1
:105410000E943A2616C06091CA027091CB02AE017A
:105420004F5F5F4F0E946925BC01892B09F441C081
:105430009091E800977F9093E80089819A810E947B
:1054400098268091E8008B778093E80032C08038FE
:1054500081F58091E800877F8093E8008091C10208
:105460008093F1008091E8008E7772CF811121C086
:105470008091C8029091C90299270297D4F4809133
:10548000E800877F8093E8008091C8028093C10282
:105490000E942E278091C102811106C08091E300F5
:1054A00087FD02C081E001C084E08093C5020E94B4
:1054B00061248091E80083FF0AC08091E800877F23
:1054C0008093E8008091EB0080628093EB00AA96C5
:1054D0000FB6F894DEBF0FBECDBFDF91CF911F9105
:1054E00008950895CF938091C5028823A1F0C091BB
:1054F000E900CF709091EC00892F817090FD80E8D9
:10550000C82B1092E9008091E80083FD0E941129C8
:10551000CF70C093E900CF910895AA1BBB1B51E146
:1055200007C0AA1FBB1FA617B70710F0A61BB70B13
:10553000881F991F5A95A9F780959095BC01CD01B8
:10554000089597FB072E16F4009407D077FD09D035
:105550000E948D2A07FC05D03EF4909581959F4FBF
:105560000895709561957F4F0895EE0FFF1F059088
:10557000F491E02D0994FC014150504030F001902D
:105580000616D1F73197CF010895882799270895F6
:10559000F999FECF92BD81BDF89A992780B50895FB
:1055A000A6E1B0E044E050E00C94022BA8E1B0E0AA
:1055B00042E050E00C94022B262FF999FECF92BDC9
:1055C00081BDF89A019700B4021639F01FBA20BDC8
:1055D0000FB6F894FA9AF99A0FBE08950396272FFA
:1055E0000E94DD2A0E94DC2A252F0E94DD2A242F1A
:1055F0000C94DD2A0196272F0E94DD2A0C94DC2AC8
:10560000DC01CB01FC01F999FECF06C0F2BDE1BD82
:10561000F89A319600B40D9241505040B8F7089571
:04562000F894FFCF2C
:10562400010210101001191A1B1C1D1E1F2021221B
:1056340030022808140A321E66230524DA23A42320
:105644006923013236F0F16795373534C69766948D
:1056540090913331F7F6F5F40001020202020606D6
:10566400060909090909090F0F0F0F0F0F15151561
:105674001819191919191919191919232400FF01CD
:0E56840000010000FFFF0000010001FF000018
:00000001FF
